{
  "contractName": "Lottery",
  "abi": [
    {
      "inputs": [],
      "stateMutability": "nonpayable",
      "type": "constructor"
    },
    {
      "anonymous": false,
      "inputs": [
        {
          "indexed": false,
          "internalType": "address",
          "name": "add",
          "type": "address"
        }
      ],
      "name": "getaddress",
      "type": "event"
    },
    {
      "anonymous": false,
      "inputs": [
        {
          "indexed": false,
          "internalType": "uint256",
          "name": "bal",
          "type": "uint256"
        }
      ],
      "name": "getbal",
      "type": "event"
    },
    {
      "inputs": [],
      "name": "manager",
      "outputs": [
        {
          "internalType": "address",
          "name": "",
          "type": "address"
        }
      ],
      "stateMutability": "view",
      "type": "function"
    },
    {
      "inputs": [
        {
          "internalType": "uint256",
          "name": "",
          "type": "uint256"
        }
      ],
      "name": "players",
      "outputs": [
        {
          "internalType": "address payable",
          "name": "",
          "type": "address"
        }
      ],
      "stateMutability": "view",
      "type": "function"
    },
    {
      "inputs": [],
      "name": "treasury",
      "outputs": [
        {
          "internalType": "uint256",
          "name": "",
          "type": "uint256"
        }
      ],
      "stateMutability": "view",
      "type": "function"
    },
    {
      "inputs": [],
      "name": "enter",
      "outputs": [],
      "stateMutability": "payable",
      "type": "function"
    },
    {
      "inputs": [],
      "name": "pickWinner",
      "outputs": [],
      "stateMutability": "nonpayable",
      "type": "function"
    },
    {
      "inputs": [],
      "name": "getPlayers",
      "outputs": [
        {
          "internalType": "address payable[]",
          "name": "",
          "type": "address[]"
        }
      ],
      "stateMutability": "view",
      "type": "function"
    }
  ],
  "bytecode": "0x608060405234801561001057600080fd5b50336000806101000a81548173ffffffffffffffffffffffffffffffffffffffff021916908373ffffffffffffffffffffffffffffffffffffffff160217905550610a82806100606000396000f3fe6080604052600436106100555760003560e01c8063481c6a751461005a5780635d495aea1461008557806361d027b31461009c5780638b5b9ccc146100c7578063e97dcb62146100f2578063f71d96cb146100fc575b600080fd5b34801561006657600080fd5b5061006f610139565b60405161007c91906105ea565b60405180910390f35b34801561009157600080fd5b5061009a61015d565b005b3480156100a857600080fd5b506100b1610368565b6040516100be919061061e565b60405180910390f35b3480156100d357600080fd5b506100dc61036e565b6040516100e99190610709565b60405180910390f35b6100fa6103fc565b005b34801561010857600080fd5b50610123600480360381019061011e919061075c565b61048d565b6040516101309190610798565b60405180910390f35b60008054906101000a900473ffffffffffffffffffffffffffffffffffffffff1681565b60008054906101000a900473ffffffffffffffffffffffffffffffffffffffff1673ffffffffffffffffffffffffffffffffffffffff163373ffffffffffffffffffffffffffffffffffffffff16146101b557600080fd5b60006001805490506101c56104cc565b6101cf91906107e2565b90507ff54587489e22da141e93a971eeabe3e6ce2baa03cc1a8d31535d62d8909afca53060405161020091906105ea565b60405180910390a17f414c639751ebc1ea506ecc9c3d2170fc32730f9dcc683824d5443b9e26b064a547604051610237919061061e565b60405180910390a16001818154811061025357610252610813565b5b9060005260206000200160009054906101000a900473ffffffffffffffffffffffffffffffffffffffff1673ffffffffffffffffffffffffffffffffffffffff166108fc6002549081150290604051600060405180830381858888f193505050501580156102c5573d6000803e3d6000fd5b507f414c639751ebc1ea506ecc9c3d2170fc32730f9dcc683824d5443b9e26b064a5476040516102f5919061061e565b60405180910390a1600067ffffffffffffffff81111561031857610317610842565b5b6040519080825280602002602001820160405280156103465781602001602082028036833780820191505090505b506001908051906020019061035c929190610502565b50600060028190555050565b60025481565b606060018054806020026020016040519081016040528092919081815260200182805480156103f257602002820191906000526020600020905b8160009054906101000a900473ffffffffffffffffffffffffffffffffffffffff1673ffffffffffffffffffffffffffffffffffffffff16815260200190600101908083116103a8575b5050505050905090565b662386f26fc10000341161040f57600080fd5b6001339080600181540180825580915050600190039060005260206000200160009091909190916101000a81548173ffffffffffffffffffffffffffffffffffffffff021916908373ffffffffffffffffffffffffffffffffffffffff160217905550346002600082825461048491906108a0565b92505081905550565b6001818154811061049d57600080fd5b906000526020600020016000915054906101000a900473ffffffffffffffffffffffffffffffffffffffff1681565b6000444260016040516020016104e493929190610a13565b6040516020818303038152906040528051906020012060001c905090565b82805482825590600052602060002090810192821561057b579160200282015b8281111561057a5782518260006101000a81548173ffffffffffffffffffffffffffffffffffffffff021916908373ffffffffffffffffffffffffffffffffffffffff16021790555091602001919060010190610522565b5b509050610588919061058c565b5090565b5b808211156105a557600081600090555060010161058d565b5090565b600073ffffffffffffffffffffffffffffffffffffffff82169050919050565b60006105d4826105a9565b9050919050565b6105e4816105c9565b82525050565b60006020820190506105ff60008301846105db565b92915050565b6000819050919050565b61061881610605565b82525050565b6000602082019050610633600083018461060f565b92915050565b600081519050919050565b600082825260208201905092915050565b6000819050602082019050919050565b6000610670826105a9565b9050919050565b61068081610665565b82525050565b60006106928383610677565b60208301905092915050565b6000602082019050919050565b60006106b682610639565b6106c08185610644565b93506106cb83610655565b8060005b838110156106fc5781516106e38882610686565b97506106ee8361069e565b9250506001810190506106cf565b5085935050505092915050565b6000602082019050818103600083015261072381846106ab565b905092915050565b600080fd5b61073981610605565b811461074457600080fd5b50565b60008135905061075681610730565b92915050565b6000602082840312156107725761077161072b565b5b600061078084828501610747565b91505092915050565b61079281610665565b82525050565b60006020820190506107ad6000830184610789565b92915050565b7f4e487b7100000000000000000000000000000000000000000000000000000000600052601260045260246000fd5b60006107ed82610605565b91506107f883610605565b925082610808576108076107b3565b5b828206905092915050565b7f4e487b7100000000000000000000000000000000000000000000000000000000600052603260045260246000fd5b7f4e487b7100000000000000000000000000000000000000000000000000000000600052604160045260246000fd5b7f4e487b7100000000000000000000000000000000000000000000000000000000600052601160045260246000fd5b60006108ab82610605565b91506108b683610605565b92508282019050808211156108ce576108cd610871565b5b92915050565b6000819050919050565b6108ef6108ea82610605565b6108d4565b82525050565b600081549050919050565b600081905092915050565b60008190508160005260206000209050919050565b61092981610665565b82525050565b600061093b8383610920565b60208301905092915050565b60008160001c9050919050565b600073ffffffffffffffffffffffffffffffffffffffff82169050919050565b600061098761098283610947565b610954565b9050919050565b600061099a8254610974565b9050919050565b6000600182019050919050565b60006109b9826108f5565b6109c38185610900565b93506109ce8361090b565b8060005b83811015610a06576109e38261098e565b6109ed888261092f565b97506109f8836109a1565b9250506001810190506109d2565b5085935050505092915050565b6000610a1f82866108de565b602082019150610a2f82856108de565b602082019150610a3f82846109ae565b915081905094935050505056fea26469706673582212208a07825e67494d27eb51d7b6753f95bf74917ac490b04d51adc87a346dafeafb64736f6c63430008100033",
  "immutableReferences": {},
  "source": "// SPDX-License-Identifier: GPL-3.0\r\npragma solidity >= 0.7.0 < 0.9.0;\r\n\r\ncontract Lottery {\r\n    address public manager;\r\n    address payable[] public players;\r\n    uint256 public treasury;\r\n\r\n    constructor(){\r\n        manager = msg.sender;\r\n    }\r\n\r\n    event getbal(uint256 bal);\r\n    event getaddress(address add);\r\n\r\n    modifier restricted() {\r\n        require(msg.sender == manager);\r\n        _;\r\n    }\r\n\r\n    function enter() public payable {\r\n        require(msg.value > .01 ether);\r\n        players.push(payable(msg.sender));\r\n        treasury += msg.value;\r\n    }\r\n\r\n    function random() private view returns (uint) {\r\n        return uint(keccak256(abi.encodePacked(block.difficulty, block.timestamp, players)));\r\n    }\r\n\r\n    function pickWinner() public restricted {\r\n        uint index = random() % players.length;\r\n        emit getaddress(address(this));             // address(this)   .\r\n        emit getbal(address(this).balance);\r\n        players[index].transfer(treasury);\r\n        emit getbal(address(this).balance);\r\n        players = new address payable[](0);\r\n        treasury = 0;\r\n    }\r\n\r\n    function getPlayers() public view returns (address payable[] memory) {\r\n        return players;\r\n    }\r\n}\r\n",
  "sourcePath": "C:\\Users\\seung\\Desktop\\2X_Trade_Start_Set\\Web_SmartContract\\smart contract\\new-dapp\\contracts\\Lottery.sol",
  "compiler": {
    "name": "solc",
    "version": "0.8.16+commit.07a7930e.Emscripten.clang"
  },
  "schemaVersion": "3.4.9",
  "updatedAt": "2022-08-18T09:40:42.601Z",
  "devdoc": {
    "kind": "dev",
    "methods": {},
    "version": 1
  },
  "userdoc": {
    "kind": "user",
    "methods": {},
    "version": 1
  }
}