{
  "contractName": "Ballot",
  "abi": [
    {
      "inputs": [
        {
          "internalType": "uint256",
          "name": "numProposals",
          "type": "uint256"
        }
      ],
      "stateMutability": "nonpayable",
      "type": "constructor"
    },
    {
      "anonymous": false,
      "inputs": [
        {
          "indexed": false,
          "internalType": "string",
          "name": "who",
          "type": "string"
        },
        {
          "indexed": false,
          "internalType": "address",
          "name": "chairman",
          "type": "address"
        }
      ],
      "name": "log",
      "type": "event"
    },
    {
      "anonymous": false,
      "inputs": [
        {
          "indexed": false,
          "internalType": "string",
          "name": "a",
          "type": "string"
        }
      ],
      "name": "log2",
      "type": "event"
    },
    {
      "inputs": [
        {
          "internalType": "address",
          "name": "voter",
          "type": "address"
        }
      ],
      "name": "register",
      "outputs": [],
      "stateMutability": "nonpayable",
      "type": "function"
    },
    {
      "inputs": [
        {
          "internalType": "uint256",
          "name": "toProposal",
          "type": "uint256"
        }
      ],
      "name": "vote",
      "outputs": [],
      "stateMutability": "nonpayable",
      "type": "function"
    },
    {
      "inputs": [],
      "name": "reqWinner",
      "outputs": [
        {
          "internalType": "uint256",
          "name": "winningProposal",
          "type": "uint256"
        }
      ],
      "stateMutability": "view",
      "type": "function",
      "constant": true
    }
  ],
  "bytecode": "0x60806040523480156200001157600080fd5b5060405162001123380380620011238339818101604052810190620000379190620002c0565b336000806101000a81548173ffffffffffffffffffffffffffffffffffffffff021916908373ffffffffffffffffffffffffffffffffffffffff1602179055506002600160008060009054906101000a900473ffffffffffffffffffffffffffffffffffffffff1673ffffffffffffffffffffffffffffffffffffffff1673ffffffffffffffffffffffffffffffffffffffff168152602001908152602001600020600101819055506000600160008060009054906101000a900473ffffffffffffffffffffffffffffffffffffffff1673ffffffffffffffffffffffffffffffffffffffff1673ffffffffffffffffffffffffffffffffffffffff16815260200190815260200160002060020160006101000a81548160ff02191690831515021790555060018060008060009054906101000a900473ffffffffffffffffffffffffffffffffffffffff1673ffffffffffffffffffffffffffffffffffffffff1673ffffffffffffffffffffffffffffffffffffffff16815260200190815260200160002060000160006101000a81548160ff0219169083151502179055507f319af333460570a1937bf195dd33445c0d0951c59127da6f1f038b9fdce3fd723360405162000208919062000398565b60405180910390a160005b818160ff16101562000278576002604051806020016040528060008152509080600181540180825580915050600190039060005260206000200160009091909190915060008201518160000155505080806200026f9062000406565b91505062000213565b505062000435565b600080fd5b6000819050919050565b6200029a8162000285565b8114620002a657600080fd5b50565b600081519050620002ba816200028f565b92915050565b600060208284031215620002d957620002d862000280565b5b6000620002e984828501620002a9565b91505092915050565b600082825260208201905092915050565b7f63686169726d616e3a0000000000000000000000000000000000000000000000600082015250565b60006200033b600983620002f2565b9150620003488262000303565b602082019050919050565b600073ffffffffffffffffffffffffffffffffffffffff82169050919050565b6000620003808262000353565b9050919050565b620003928162000373565b82525050565b60006040820190508181036000830152620003b3816200032c565b9050620003c4602083018462000387565b92915050565b7f4e487b7100000000000000000000000000000000000000000000000000000000600052601160045260246000fd5b600060ff82169050919050565b60006200041382620003f9565b915060ff8214156200042a5762000429620003ca565b5b600182019050919050565b610cde80620004456000396000f3fe608060405234801561001057600080fd5b50600436106100415760003560e01c80630121b93f146100465780634420e48614610062578063508b30c91461007e575b600080fd5b610060600480360381019061005b9190610703565b61009c565b005b61007c6004803603810190610077919061078e565b610355565b005b610086610636565b60405161009391906107ca565b60405180910390f35b600160003373ffffffffffffffffffffffffffffffffffffffff1673ffffffffffffffffffffffffffffffffffffffff16815260200190815260200160002060000160009054906101000a900460ff1661012b576040517f08c379a000000000000000000000000000000000000000000000000000000000815260040161012290610842565b60405180910390fd5b600160003373ffffffffffffffffffffffffffffffffffffffff1673ffffffffffffffffffffffffffffffffffffffff16815260200190815260200160002060020160009054906101000a900460ff16156101bb576040517f08c379a00000000000000000000000000000000000000000000000000000000081526004016101b2906108ae565b60405180910390fd5b6002805490508110610202576040517f08c379a00000000000000000000000000000000000000000000000000000000081526004016101f99061091a565b60405180910390fd5b7f1e69321bbdc0510e8b5f62e2a1bbbed6143ae12e782a1783a55e8fd5019f3b0f60405161022f90610986565b60405180910390a160018060003373ffffffffffffffffffffffffffffffffffffffff1673ffffffffffffffffffffffffffffffffffffffff16815260200190815260200160002060020160006101000a81548160ff02191690831515021790555080600160003373ffffffffffffffffffffffffffffffffffffffff1673ffffffffffffffffffffffffffffffffffffffff16815260200190815260200160002060030181905550600160003373ffffffffffffffffffffffffffffffffffffffff1673ffffffffffffffffffffffffffffffffffffffff168152602001908152602001600020600101546002828154811061032f5761032e6109a6565b5b90600052602060002001600001600082825461034b9190610a04565b9250508190555050565b60008054906101000a900473ffffffffffffffffffffffffffffffffffffffff1673ffffffffffffffffffffffffffffffffffffffff163373ffffffffffffffffffffffffffffffffffffffff16146103e3576040517f08c379a00000000000000000000000000000000000000000000000000000000081526004016103da90610aa6565b60405180910390fd5b60008054906101000a900473ffffffffffffffffffffffffffffffffffffffff1673ffffffffffffffffffffffffffffffffffffffff168173ffffffffffffffffffffffffffffffffffffffff161415610472576040517f08c379a000000000000000000000000000000000000000000000000000000000815260040161046990610b38565b60405180910390fd5b600160008273ffffffffffffffffffffffffffffffffffffffff1673ffffffffffffffffffffffffffffffffffffffff16815260200190815260200160002060000160009054906101000a900460ff1615610502576040517f08c379a00000000000000000000000000000000000000000000000000000000081526004016104f990610ba4565b60405180910390fd5b60018060008373ffffffffffffffffffffffffffffffffffffffff1673ffffffffffffffffffffffffffffffffffffffff168152602001908152602001600020600101819055506000600160008373ffffffffffffffffffffffffffffffffffffffff1673ffffffffffffffffffffffffffffffffffffffff16815260200190815260200160002060020160006101000a81548160ff02191690831515021790555060018060008373ffffffffffffffffffffffffffffffffffffffff1673ffffffffffffffffffffffffffffffffffffffff16815260200190815260200160002060000160006101000a81548160ff0219169083151502179055507f1e69321bbdc0510e8b5f62e2a1bbbed6143ae12e782a1783a55e8fd5019f3b0f60405161062b90610c10565b60405180910390a150565b6000806000905060005b6002805490508110156106b1578160028281548110610662576106616109a6565b5b9060005260206000200160000154111561069e576002818154811061068a576106896109a6565b5b906000526020600020016000015491508092505b80806106a990610c30565b915050610640565b5060038110156106c4576106c3610c79565b5b5090565b600080fd5b6000819050919050565b6106e0816106cd565b81146106eb57600080fd5b50565b6000813590506106fd816106d7565b92915050565b600060208284031215610719576107186106c8565b5b6000610727848285016106ee565b91505092915050565b600073ffffffffffffffffffffffffffffffffffffffff82169050919050565b600061075b82610730565b9050919050565b61076b81610750565b811461077657600080fd5b50565b60008135905061078881610762565b92915050565b6000602082840312156107a4576107a36106c8565b5b60006107b284828501610779565b91505092915050565b6107c4816106cd565b82525050565b60006020820190506107df60008301846107bb565b92915050565b600082825260208201905092915050565b7f4e6f742061205265676973746572656420566f74657200000000000000000000600082015250565b600061082c6016836107e5565b9150610837826107f6565b602082019050919050565b6000602082019050818103600083015261085b8161081f565b9050919050565b7f416c726561647920766f74656400000000000000000000000000000000000000600082015250565b6000610898600d836107e5565b91506108a382610862565b602082019050919050565b600060208201905081810360008301526108c78161088b565b9050919050565b7f57726f6e672070726f706f73616c000000000000000000000000000000000000600082015250565b6000610904600e836107e5565b915061090f826108ce565b602082019050919050565b60006020820190508181036000830152610933816108f7565b9050919050565b7f766f74696e670000000000000000000000000000000000000000000000000000600082015250565b60006109706006836107e5565b915061097b8261093a565b602082019050919050565b6000602082019050818103600083015261099f81610963565b9050919050565b7f4e487b7100000000000000000000000000000000000000000000000000000000600052603260045260246000fd5b7f4e487b7100000000000000000000000000000000000000000000000000000000600052601160045260246000fd5b6000610a0f826106cd565b9150610a1a836106cd565b9250827fffffffffffffffffffffffffffffffffffffffffffffffffffffffffffffffff03821115610a4f57610a4e6109d5565b5b828201905092915050565b7f796f7520617265206e6f74206368616972706572736f6e000000000000000000600082015250565b6000610a906017836107e5565b9150610a9b82610a5a565b602082019050919050565b60006020820190508181036000830152610abf81610a83565b9050919050565b7f6368616972706572736f6e2063616e27742072656769737465722068696d736560008201527f6c66000000000000000000000000000000000000000000000000000000000000602082015250565b6000610b226022836107e5565b9150610b2d82610ac6565b604082019050919050565b60006020820190508181036000830152610b5181610b15565b9050919050565b7f416c726561647920726567697374657265640000000000000000000000000000600082015250565b6000610b8e6012836107e5565b9150610b9982610b58565b602082019050919050565b60006020820190508181036000830152610bbd81610b81565b9050919050565b7f7265676973746572656400000000000000000000000000000000000000000000600082015250565b6000610bfa600a836107e5565b9150610c0582610bc4565b602082019050919050565b60006020820190508181036000830152610c2981610bed565b9050919050565b6000610c3b826106cd565b91507fffffffffffffffffffffffffffffffffffffffffffffffffffffffffffffffff821415610c6e57610c6d6109d5565b5b600182019050919050565b7f4e487b7100000000000000000000000000000000000000000000000000000000600052600160045260246000fdfea2646970667358221220283c5fd0b8b0c6419fbdc8e189e835823f36d320ec951341a9f4dd6c8507a8ef64736f6c634300080a0033",
  "immutableReferences": {},
  "source": "// SPDX-License-Identifier: GPL-3.0\npragma solidity >= 0.7.0 < 0.9.0;\ncontract Ballot {\n    event log(string who, address chairman);\n    event log2(string a);\n\n    struct Voter {\n        bool registered;\n        uint weight;\n        bool voted;\n        uint vote;\n    }\n    struct Proposal {\n        uint voteCount;\n    }\n\n    address chairperson;\n    mapping(address => Voter) voters;\n    Proposal[] proposals;\n\n\n       //modifiers\n\n    modifier onlyChair()\n     {require(msg.sender == chairperson, \"you are not chairperson\");\n      _;\n     }\n\n     modifier validVoter()\n    {\n        require(voters[msg.sender].registered, \"Not a Registered Voter\");\n        _;\n    }\n\n    constructor (uint numProposals) {\n\n        chairperson = msg.sender;\n        voters[chairperson].weight = 2; // weight 2 for testing purposes\n        voters[chairperson].voted = false;\n        voters[chairperson].registered = true;\n        emit log(\"chairman:\",msg.sender);\n        //proposals.length = numProposals; -- before 0.6.0\n        for (uint8 prop = 0; prop < numProposals; prop ++)\n            proposals.push(Proposal(0));\n\n    }\n\n\n    function register(address voter) public  onlyChair {\n        require(voter!=chairperson, \"chairperson can't register himself\");\n        require(!voters[voter].registered,\"Already registered\");\n        voters[voter].weight = 1;\n        voters[voter].voted = false;\n        voters[voter].registered = true;\n        emit log2(\"registered\");\n    }\n\n\n    function vote(uint toProposal) public  validVoter{\n\n        require (!voters[msg.sender].voted, \"Already voted\");\n        require (toProposal < proposals.length,\"Wrong proposal\");\n\n        emit log2(\"voting\");\n\n        voters[msg.sender].voted = true;\n        voters[msg.sender].vote = toProposal;\n        proposals[toProposal].voteCount += voters[msg.sender].weight;\n    }\n\n    function reqWinner() public view returns (uint winningProposal) {\n\n        uint winningVoteCount = 0;\n        for (uint prop = 0; prop < proposals.length; prop++)\n            if (proposals[prop].voteCount > winningVoteCount) {\n                winningVoteCount = proposals[prop].voteCount;\n                winningProposal = prop;\n            }\n       assert(winningVoteCount>=3);\n    }\n}\n",
  "sourcePath": "C:\\Users\\seung\\smart contract\\Ballot-Dapp\\ballot-contract\\contracts\\Ballot.sol",
  "compiler": {
    "name": "solc",
    "version": "0.8.10+commit.fc410830.Emscripten.clang"
  },
  "schemaVersion": "3.4.4",
  "updatedAt": "2022-01-13T09:18:45.163Z",
  "networkType": "ethereum",
  "devdoc": {
    "kind": "dev",
    "methods": {},
    "version": 1
  },
  "userdoc": {
    "kind": "user",
    "methods": {},
    "version": 1
  }
}