{
  "contractName": "BlindAuction",
  "abi": [
    {
      "inputs": [],
      "stateMutability": "nonpayable",
      "type": "constructor"
    },
    {
      "anonymous": false,
      "inputs": [
        {
          "indexed": false,
          "internalType": "address",
          "name": "winner",
          "type": "address"
        },
        {
          "indexed": false,
          "internalType": "uint256",
          "name": "highestBid",
          "type": "uint256"
        }
      ],
      "name": "AuctionEnded",
      "type": "event"
    },
    {
      "anonymous": false,
      "inputs": [],
      "name": "AuctionInit",
      "type": "event"
    },
    {
      "anonymous": false,
      "inputs": [],
      "name": "BiddingStarted",
      "type": "event"
    },
    {
      "anonymous": false,
      "inputs": [],
      "name": "RevealStarted",
      "type": "event"
    },
    {
      "inputs": [],
      "name": "beneficiary",
      "outputs": [
        {
          "internalType": "address payable",
          "name": "",
          "type": "address"
        }
      ],
      "stateMutability": "view",
      "type": "function"
    },
    {
      "inputs": [
        {
          "internalType": "address",
          "name": "",
          "type": "address"
        }
      ],
      "name": "bids",
      "outputs": [
        {
          "internalType": "bytes32",
          "name": "blindedBid",
          "type": "bytes32"
        },
        {
          "internalType": "uint256",
          "name": "deposit",
          "type": "uint256"
        }
      ],
      "stateMutability": "view",
      "type": "function"
    },
    {
      "inputs": [],
      "name": "currentPhase",
      "outputs": [
        {
          "internalType": "enum BlindAuction.Phase",
          "name": "",
          "type": "uint8"
        }
      ],
      "stateMutability": "view",
      "type": "function"
    },
    {
      "inputs": [],
      "name": "highestBid",
      "outputs": [
        {
          "internalType": "uint256",
          "name": "",
          "type": "uint256"
        }
      ],
      "stateMutability": "view",
      "type": "function"
    },
    {
      "inputs": [],
      "name": "highestBidder",
      "outputs": [
        {
          "internalType": "address",
          "name": "",
          "type": "address"
        }
      ],
      "stateMutability": "view",
      "type": "function"
    },
    {
      "inputs": [],
      "name": "advancePhase",
      "outputs": [],
      "stateMutability": "nonpayable",
      "type": "function"
    },
    {
      "inputs": [
        {
          "internalType": "bytes32",
          "name": "blindBid",
          "type": "bytes32"
        }
      ],
      "name": "bid",
      "outputs": [],
      "stateMutability": "payable",
      "type": "function"
    },
    {
      "inputs": [
        {
          "internalType": "uint256",
          "name": "value",
          "type": "uint256"
        },
        {
          "internalType": "bytes32",
          "name": "secret",
          "type": "bytes32"
        }
      ],
      "name": "reveal",
      "outputs": [],
      "stateMutability": "nonpayable",
      "type": "function"
    },
    {
      "inputs": [],
      "name": "withdraw",
      "outputs": [],
      "stateMutability": "nonpayable",
      "type": "function"
    },
    {
      "inputs": [],
      "name": "auctionEnd",
      "outputs": [],
      "stateMutability": "nonpayable",
      "type": "function"
    },
    {
      "inputs": [],
      "name": "closeAuction",
      "outputs": [],
      "stateMutability": "nonpayable",
      "type": "function"
    }
  ],
  "bytecode": "0x608060405260006002556000600560006101000a81548160ff0219169083600381111561002f5761002e610086565b5b021790555034801561004057600080fd5b50336000806101000a81548173ffffffffffffffffffffffffffffffffffffffff021916908373ffffffffffffffffffffffffffffffffffffffff1602179055506100b5565b7f4e487b7100000000000000000000000000000000000000000000000000000000600052602160045260246000fd5b61139a806100c46000396000f3fe60806040526004361061009c5760003560e01c80634036778f116100645780634036778f1461013c57806362ea82db1461016557806391f90157146101a3578063957bb1e0146101ce578063be25a718146101ea578063d57bde79146102015761009c565b8063055ad42e146100a15780632a24f46c146100cc578063378252f2146100e357806338af3eed146100fa5780633ccfd60b14610125575b600080fd5b3480156100ad57600080fd5b506100b661022c565b6040516100c39190610dad565b60405180910390f35b3480156100d857600080fd5b506100e161023f565b005b3480156100ef57600080fd5b506100f8610389565b005b34801561010657600080fd5b5061010f610450565b60405161011c9190610e09565b60405180910390f35b34801561013157600080fd5b5061013a610474565b005b34801561014857600080fd5b50610163600480360381019061015e9190610e95565b610551565b005b34801561017157600080fd5b5061018c60048036038101906101879190610f13565b610793565b60405161019a929190610f5e565b60405180910390f35b3480156101af57600080fd5b506101b86107b7565b6040516101c59190610f96565b60405180910390f35b6101e860048036038101906101e39190610fb1565b6107dd565b005b3480156101f657600080fd5b506101ff610952565b005b34801561020d57600080fd5b50610216610bf8565b6040516102239190610fde565b60405180910390f35b600560009054906101000a900460ff1681565b600380600381111561025457610253610d36565b5b600560009054906101000a900460ff16600381111561027657610275610d36565b5b146102b6576040517f08c379a00000000000000000000000000000000000000000000000000000000081526004016102ad90611056565b60405180910390fd5b60025447106103295760008054906101000a900473ffffffffffffffffffffffffffffffffffffffff1673ffffffffffffffffffffffffffffffffffffffff166108fc6002549081150290604051600060405180830381858888f19350505050158015610327573d6000803e3d6000fd5b505b7fdaec4582d5d9595688c8c98545fdd1c696d41c6aeaeb636737e84ed2f5c00eda600160009054906101000a900473ffffffffffffffffffffffffffffffffffffffff1660025460405161037e929190611076565b60405180910390a150565b60008054906101000a900473ffffffffffffffffffffffffffffffffffffffff1673ffffffffffffffffffffffffffffffffffffffff163373ffffffffffffffffffffffffffffffffffffffff1614610417576040517f08c379a000000000000000000000000000000000000000000000000000000000815260040161040e906110eb565b60405180910390fd5b60008054906101000a900473ffffffffffffffffffffffffffffffffffffffff1673ffffffffffffffffffffffffffffffffffffffff16ff5b60008054906101000a900473ffffffffffffffffffffffffffffffffffffffff1681565b6000600460003373ffffffffffffffffffffffffffffffffffffffff1673ffffffffffffffffffffffffffffffffffffffff168152602001908152602001600020549050600081111561054e576000600460003373ffffffffffffffffffffffffffffffffffffffff1673ffffffffffffffffffffffffffffffffffffffff168152602001908152602001600020819055503373ffffffffffffffffffffffffffffffffffffffff166108fc829081150290604051600060405180830381858888f1935050505015801561054c573d6000803e3d6000fd5b505b50565b600280600381111561056657610565610d36565b5b600560009054906101000a900460ff16600381111561058857610587610d36565b5b146105c8576040517f08c379a00000000000000000000000000000000000000000000000000000000081526004016105bf90611056565b60405180910390fd5b60008054906101000a900473ffffffffffffffffffffffffffffffffffffffff1673ffffffffffffffffffffffffffffffffffffffff163373ffffffffffffffffffffffffffffffffffffffff161415610657576040517f08c379a000000000000000000000000000000000000000000000000000000000815260040161064e90611157565b60405180910390fd5b600080600360003373ffffffffffffffffffffffffffffffffffffffff1673ffffffffffffffffffffffffffffffffffffffff168152602001908152602001600020905084846040516020016106ae9291906111b9565b6040516020818303038152906040528051906020012081600001541415610745578060010154826106df9190611214565b9150670de0b6b3a7640000856106f5919061126a565b8160010154106107445761071c33670de0b6b3a764000087610717919061126a565b610bfe565b1561074357670de0b6b3a764000085610735919061126a565b8261074091906112c4565b91505b5b5b3373ffffffffffffffffffffffffffffffffffffffff166108fc839081150290604051600060405180830381858888f1935050505015801561078b573d6000803e3d6000fd5b505050505050565b60036020528060005260406000206000915090508060000154908060010154905082565b600160009054906101000a900473ffffffffffffffffffffffffffffffffffffffff1681565b60018060038111156107f2576107f1610d36565b5b600560009054906101000a900460ff16600381111561081457610813610d36565b5b14610854576040517f08c379a000000000000000000000000000000000000000000000000000000000815260040161084b90611056565b60405180910390fd5b60008054906101000a900473ffffffffffffffffffffffffffffffffffffffff1673ffffffffffffffffffffffffffffffffffffffff163373ffffffffffffffffffffffffffffffffffffffff1614156108e3576040517f08c379a00000000000000000000000000000000000000000000000000000000081526004016108da90611344565b60405180910390fd5b604051806040016040528083815260200134815250600360003373ffffffffffffffffffffffffffffffffffffffff1673ffffffffffffffffffffffffffffffffffffffff16815260200190815260200160002060008201518160000155602082015181600101559050505050565b60008054906101000a900473ffffffffffffffffffffffffffffffffffffffff1673ffffffffffffffffffffffffffffffffffffffff163373ffffffffffffffffffffffffffffffffffffffff16146109e0576040517f08c379a00000000000000000000000000000000000000000000000000000000081526004016109d7906110eb565b60405180910390fd5b6003808111156109f3576109f2610d36565b5b600560009054906101000a900460ff166003811115610a1557610a14610d36565b5b1415610a4b576000600560006101000a81548160ff02191690836003811115610a4157610a40610d36565b5b0217905550610abb565b60006001600560009054906101000a900460ff166003811115610a7157610a70610d36565b5b610a7b9190611214565b9050806003811115610a9057610a8f610d36565b5b600560006101000a81548160ff02191690836003811115610ab457610ab3610d36565b5b0217905550505b60026003811115610acf57610ace610d36565b5b600560009054906101000a900460ff166003811115610af157610af0610d36565b5b1415610b24577f3bcc93d35219aa0512d7c0d1ca10b0231f473e3d5f9396877d1b7215ee0ab3d560405160405180910390a15b60016003811115610b3857610b37610d36565b5b600560009054906101000a900460ff166003811115610b5a57610b59610d36565b5b1415610b8d577f02c124e22ee7da1c9905bbb317cf67658c1cc3ea1c0953b1633f85d0b5c281d960405160405180910390a15b60006003811115610ba157610ba0610d36565b5b600560009054906101000a900460ff166003811115610bc357610bc2610d36565b5b1415610bf6577f8ad2842071cb64589c8e006941bc20b615aae08a93530e211ca7c9639bd26d9760405160405180910390a15b565b60025481565b60006002548211610c125760009050610d30565b600073ffffffffffffffffffffffffffffffffffffffff16600160009054906101000a900473ffffffffffffffffffffffffffffffffffffffff1673ffffffffffffffffffffffffffffffffffffffff1614610ce35760025460046000600160009054906101000a900473ffffffffffffffffffffffffffffffffffffffff1673ffffffffffffffffffffffffffffffffffffffff1673ffffffffffffffffffffffffffffffffffffffff1681526020019081526020016000206000828254610cdb9190611214565b925050819055505b8160028190555082600160006101000a81548173ffffffffffffffffffffffffffffffffffffffff021916908373ffffffffffffffffffffffffffffffffffffffff160217905550600190505b92915050565b7f4e487b7100000000000000000000000000000000000000000000000000000000600052602160045260246000fd5b60048110610d7657610d75610d36565b5b50565b6000819050610d8782610d65565b919050565b6000610d9782610d79565b9050919050565b610da781610d8c565b82525050565b6000602082019050610dc26000830184610d9e565b92915050565b600073ffffffffffffffffffffffffffffffffffffffff82169050919050565b6000610df382610dc8565b9050919050565b610e0381610de8565b82525050565b6000602082019050610e1e6000830184610dfa565b92915050565b600080fd5b6000819050919050565b610e3c81610e29565b8114610e4757600080fd5b50565b600081359050610e5981610e33565b92915050565b6000819050919050565b610e7281610e5f565b8114610e7d57600080fd5b50565b600081359050610e8f81610e69565b92915050565b60008060408385031215610eac57610eab610e24565b5b6000610eba85828601610e4a565b9250506020610ecb85828601610e80565b9150509250929050565b6000610ee082610dc8565b9050919050565b610ef081610ed5565b8114610efb57600080fd5b50565b600081359050610f0d81610ee7565b92915050565b600060208284031215610f2957610f28610e24565b5b6000610f3784828501610efe565b91505092915050565b610f4981610e5f565b82525050565b610f5881610e29565b82525050565b6000604082019050610f736000830185610f40565b610f806020830184610f4f565b9392505050565b610f9081610ed5565b82525050565b6000602082019050610fab6000830184610f87565b92915050565b600060208284031215610fc757610fc6610e24565b5b6000610fd584828501610e80565b91505092915050565b6000602082019050610ff36000830184610f4f565b92915050565b600082825260208201905092915050565b7f70686173654572726f7200000000000000000000000000000000000000000000600082015250565b6000611040600a83610ff9565b915061104b8261100a565b602082019050919050565b6000602082019050818103600083015261106f81611033565b9050919050565b600060408201905061108b6000830185610f87565b6110986020830184610f4f565b9392505050565b7f6f6e6c7942656e65666963696172790000000000000000000000000000000000600082015250565b60006110d5600f83610ff9565b91506110e08261109f565b602082019050919050565b60006020820190508181036000830152611104816110c8565b9050919050565b7f62656e656669636961727952657665616c000000000000000000000000000000600082015250565b6000611141601183610ff9565b915061114c8261110b565b602082019050919050565b6000602082019050818103600083015261117081611134565b9050919050565b6000819050919050565b61119261118d82610e29565b611177565b82525050565b6000819050919050565b6111b36111ae82610e5f565b611198565b82525050565b60006111c58285611181565b6020820191506111d582846111a2565b6020820191508190509392505050565b7f4e487b7100000000000000000000000000000000000000000000000000000000600052601160045260246000fd5b600061121f82610e29565b915061122a83610e29565b9250827fffffffffffffffffffffffffffffffffffffffffffffffffffffffffffffffff0382111561125f5761125e6111e5565b5b828201905092915050565b600061127582610e29565b915061128083610e29565b9250817fffffffffffffffffffffffffffffffffffffffffffffffffffffffffffffffff04831182151516156112b9576112b86111e5565b5b828202905092915050565b60006112cf82610e29565b91506112da83610e29565b9250828210156112ed576112ec6111e5565b5b828203905092915050565b7f62656e6566696369617279426964000000000000000000000000000000000000600082015250565b600061132e600e83610ff9565b9150611339826112f8565b602082019050919050565b6000602082019050818103600083015261135d81611321565b905091905056fea2646970667358221220a3a847b337d6be57b2c6108e9d97898f88ad095b48de798f2e7302f6c549230b64736f6c634300080a0033",
  "immutableReferences": {},
  "source": "// SPDX-License-Identifier: GPL-3.0\r\npragma solidity >= 0.7.0 < 0.9.0;\r\n\r\n\r\ncontract BlindAuction {\r\n    struct Bid {\r\n        bytes32 blindedBid;\r\n        uint deposit;\r\n    }\r\n\r\n    // Phases will be set only by external agents and not by time \"now\"\r\n    // Enum-uint mapping:\r\n    // Init - 0; Bidding - 1; Reveal - 2; Done - 3\r\n    enum Phase {Init, Bidding, Reveal, Done}\r\n    // Owner\r\n    address payable public beneficiary;\r\n    // Keep track of the highest bid,bidder\r\n    address public highestBidder;\r\n    uint public highestBid = 0;\r\n    // Only one bid allowed per address\r\n    mapping(address => Bid) public bids;\r\n    mapping(address => uint) pendingReturns;\r\n\r\n    Phase public currentPhase = Phase.Init;\r\n    // Events\r\n    event AuctionEnded(address winner, uint highestBid);\r\n    event BiddingStarted();\r\n    event RevealStarted();\r\n    event AuctionInit();\r\n    // Modifiers\r\n    modifier validPhase(Phase phase) {\r\n        require(currentPhase == phase, \"phaseError\");\r\n        _;\r\n    }\r\n    modifier onlyBeneficiary() {\r\n        require(msg.sender == beneficiary, \"onlyBeneficiary\");\r\n        _;\r\n    }\r\n\r\n    constructor(){\r\n        beneficiary = payable(msg.sender);\r\n        // advancePhase();\r\n    }\r\n\r\n    function advancePhase() public onlyBeneficiary {\r\n        // If already in done phase, reset to init phase\r\n        if (currentPhase == Phase.Done) {\r\n            currentPhase = Phase.Init;\r\n        } else {\r\n            // else, increment the phase\r\n            // Conversion to uint needed as enums are internally uints\r\n            uint nextPhase = uint(currentPhase) + 1;\r\n            currentPhase = Phase(nextPhase);\r\n        }\r\n\r\n        // Emit appropriate events for the new phase\r\n        if (currentPhase == Phase.Reveal) emit RevealStarted();\r\n        if (currentPhase == Phase.Bidding) emit BiddingStarted();\r\n        if (currentPhase == Phase.Init) emit AuctionInit();\r\n    }\r\n\r\n    function bid(bytes32 blindBid) public payable validPhase(Phase.Bidding) {\r\n        require(msg.sender != beneficiary,'beneficiaryBid');    // Beneficiary should not be allowed to place bids\r\n        bids[msg.sender] = Bid({blindedBid: blindBid, deposit: msg.value});\r\n    }\r\n\r\n    function reveal(uint value, bytes32 secret) public validPhase(Phase.Reveal) {\r\n        require(msg.sender != beneficiary,'beneficiaryReveal');\r\n        uint refund = 0;\r\n        Bid storage bidToCheck = bids[msg.sender];\r\n\r\n        if (bidToCheck.blindedBid == keccak256(abi.encodePacked(value, secret))) {\r\n            refund += bidToCheck.deposit;\r\n            if (bidToCheck.deposit >= value*1000000000000000000) {\r\n                if (placeBid(msg.sender, value*1000000000000000000))\r\n                    refund -= value * 1000000000000000000;\r\n            }\r\n        }\r\n        payable(msg.sender).transfer(refund);\r\n    }\r\n\r\n    // This is an \"internal\" function which means that it\r\n    // can only be called from the contract itself (or from\r\n    // derived contracts).\r\n    function placeBid(address bidder, uint value) internal returns (bool success)\r\n    {\r\n        if (value <= highestBid) {\r\n            return false;\r\n        }\r\n        if (highestBidder != address(0)) {\r\n            // Refund the previously highest bidder.\r\n            pendingReturns[highestBidder] += highestBid;\r\n        }\r\n\r\n        highestBid = value;\r\n        highestBidder = bidder;\r\n        return true;\r\n    }\r\n\r\n    // Withdraw a non-winning bid\r\n    function withdraw() public {\r\n        uint amount = pendingReturns[msg.sender];\r\n        if (amount > 0) {\r\n            pendingReturns[msg.sender] = 0;\r\n            payable(msg.sender).transfer(amount);\r\n        }\r\n    }\r\n\r\n    // Send the highest bid to the beneficiary and\r\n    // end the auction\r\n    function auctionEnd() public validPhase(Phase.Done) {\r\n        if(address(this).balance >= highestBid){\r\n            beneficiary.transfer(highestBid);\r\n        }\r\n        emit AuctionEnded(highestBidder, highestBid);\r\n    }\r\n\r\n    function closeAuction() public onlyBeneficiary {\r\n        selfdestruct(beneficiary);\r\n    }\r\n}\r\n",
  "sourcePath": "C:\\Users\\seung\\smart contract\\Auction-Dapp\\auction-contract\\contracts\\BlindAuction.sol",
  "compiler": {
    "name": "solc",
    "version": "0.8.10+commit.fc410830.Emscripten.clang"
  },
  "schemaVersion": "3.4.4",
  "updatedAt": "2022-01-18T03:46:15.239Z",
  "devdoc": {
    "kind": "dev",
    "methods": {},
    "version": 1
  },
  "userdoc": {
    "kind": "user",
    "methods": {},
    "version": 1
  }
}